:100000000C9422010C9453010C9453010C94530151
:100010000C9453010C9453010C9453010C94530110
:100020000C9453010C9453010C9453010C94530100
:100030000C9453010C9453010C9453010C945301F0
:100040000C9453010C9453010C9453010C945301E0
:100050000C9453010C9453010C9453010C94E00440
:100060000C9453010C9453010C9453010C945301C0
:100070000C9453010C9453010C9453010C945301B0
:100080000C9453010C9453010C9453010C945301A0
:100090000C9453010C9453010C9453010C94530190
:1000A0000C9453010C9453010C9453010C94530180
:1000B0000C9453010C9453010C9453010C94530170
:1000C0000C9453010C9453010C9453010C94530160
:1000D0000C9453010C9453010C9453010C94530150
:1000E0000C9453010C94DA010C94BB010C94A40100
:1000F0000C946A020C94C3010C94EC010C94FC0364
:100100000C949B060C9469020C94C7010C94E201B8
:100110000C94FA010C943C020C94BF010C94A901BC
:100120000C94D4010C94D0010C94F6010C94DE01D3
:100130000C94E8010C94F0010C94CA0100000A0B25
:1001400002090C0D0E080703040100000000000066
:10015000000000000000000000000000000000009F
:10016000000000000000000012111000000000005C
:10017000000000000000000000000000000000007F
:10018000000000002200250028002B002E00310076
:10019000340002010000050108010B0100002100EC
:1001A000240027002A002D00300033000101000048
:1001B000040107010A0105050505070508080808E7
:1001C000020202020A0A08080404040401010101EF
:1001D00001010101030303030303030304070707EA
:1001E0000C0C0C0C0C0C0C0C02020202060606068F
:1001F000060606060B0B0B0B0B0B0B0B010210205C
:10020000200808102040102040800201020108044C
:1002100002010102040810204080804020100804E0
:100220000201800402018040201008040201080439
:10023000020101020408102040800102040810207D
:1002400040809B0611241FBECFEFD1E2DEBFCDBFA1
:1002500000E00CBF12E0A0E0B2E0ECE4F2E100E06C
:100260000BBF02C007900D92A633B107D9F722E069
:10027000A6E3B2E001C01D92AF35B207E1F711E08D
:10028000C2E2D1E000E006C021970109802FFE0103
:100290000E941C09C132D10780E00807A9F70E941B
:1002A0002A050C9424090C94000090E0FC01E45011
:1002B000FE4F24918A549E4FFC018491882399F02B
:1002C00090E0880F991FFC01E456FE4FA591B49170
:1002D000FC01EE57FE4F859194918FB7F894EC9105
:1002E000E22BEC938FBF0895282F30E0F901E45CF6
:1002F000FE4F9491F901E450FE4F44912A543E4F31
:10030000F9012491222309F435C0992311F1915068
:100310009231F8F4E92FF0E08827EE56FE4F8F4F28
:100320000C941C09C301C701A401BB01BF01A901B1
:10033000CA01D001D401DA01DE01E201E801EC01D9
:10034000A901F001F601FA01809180008F77809376
:100350008000E22FF0E0EE0FFF1FEE57FE4FA59159
:10036000B4918FB7F894EC91611148C040954E2339
:100370004C938FBF0895809180008F7DE8CF80914E
:100380008000877FE4CF84B58F7784BDE2CF84B5CA
:100390008F7DFBCF8091B0008F778093B000D9CF55
:1003A0008091B0008F7DF9CF809190008F778093FE
:1003B0009000CFCF809190008F7DF9CF80919000F9
:1003C000877FF5CF8091A0008F778093A000C1CF69
:1003D0008091A0008F7DF9CF8091A000877FF5CF1D
:1003E000809120018F7780932001B3CF80912001ED
:1003F0008F7DF9CF80912001877FF5CF4E2BB8CF2D
:1004000090917B00977F90937B00865380648093CC
:100410007C0080917A00806480937A0080917A00D9
:1004200086FDFCCF809178009091790008953FB7C8
:10043000F8948091430290914402A0914502B091BA
:10044000460226B5A89B05C02F3F19F00196A11DB5
:10045000B11D3FBFBA2FA92F982F8827BC01CD010E
:10046000620F711D811D911D42E0660F771F881F6D
:10047000991F4A95D1F70895AF92BF92CF92DF921C
:10048000EF92FF920F931F93CF93DF936C017B0149
:100490008B01040F151FEB015E01AE18BF08C017DA
:1004A000D10759F06991D601ED91FC910190F0814D
:1004B000E02DC6011995892B79F7C501DF91CF9100
:1004C0001F910F91FF90EF90DF90CF90BF90AF9072
:1004D0000895089590E080E00895FC0101900020C7
:1004E000E9F73197AF01481B590BBC0187E492E053
:1004F0000C943C028F929F92AF92BF920F931F93E6
:10050000CF93DF93CDB7DEB7A1970FB6F894DEBFD8
:100510000FBECDBF19A2423008F44AE08E010F5D34
:100520001F4F842E912CB12CA12CA50194010E9467
:10053000FA08E62FB901CA01EA30F4F4E05DD80107
:10054000EE938D01232B242B252B79F790E080E06F
:10055000109719F0CD010E946D02A1960FB6F89484
:10056000DEBF0FBECDBFDF91CF911F910F91BF9026
:10057000AF909F908F900895E95CE1CFCF93DF9388
:10058000EC0160E08E810E94740161E08E810E9426
:10059000740160E08E810E9474018BE891E0019704
:1005A000F1F7DF91CF910895CF92DF92EF92FF9212
:1005B0000F931F93CF93DF936C017C0187E0E80ECC
:1005C000F11CD0E0C0E0062F10E0B8010C2E02C0F4
:1005D000759567950A94E2F76170F70181917F0143
:1005E0000E9474012196C430D10579F7C601DF91CC
:1005F000CF911F910F91FF90EF90DF90CF900C94CF
:10060000BE02CF92DF92EF92FF920F931F93CF9390
:10061000DF93EC01F62E642F8C810E9474018D8192
:100620008F3F19F060E00E9474010F2D10E08F855C
:1006300084FF25C06E0187E0C80ED11CF12CE12C8F
:10064000B8010E2C02C0759567950A94E2F76170A7
:10065000F60181916F010E947401FFEFEF1AFF0A0A
:1006600088E0E816F10461F7CE01DF91CF911F9188
:100670000F91FF90EF90DF90CF900C94BE02B801E5
:1006800084E0759567958A95E1F7CE010E94D402C2
:100690006F2DCE01DF91CF911F910F91FF90EF90C1
:1006A000DF90CF900C94D40240E0682F87E492E072
:1006B0000C940103CF93DF93823029F4909156027A
:1006C00098609093560280935A0210925B0280E4E5
:1006D00080935C0280E180935D0280E580935E02FE
:1006E00080914B020E94550180914C028F3F11F086
:1006F0000E94550180914D020E945501C7E4D2E04D
:100700009E01275432408091560284FD0AC084E045
:1007100090E02196281739073CF48E810E945501FC
:10072000EFCF88E090E0F5CF8BE39DE00197F1F704
:1007300060E080914B020E94740160E080914D0264
:100740000E94740180914C028F3F19F060E00E947A
:1007500074018091560284FD39C063E087E492E021
:100760000E94D402CBE4D6E4CE010197F1F763E016
:1007700087E492E00E94D4022197F1F763E087E4D6
:1007800092E00E94D40283E592E00197F1F762E0E3
:1007900087E492E00E94D4028091560280620E9417
:1007A000540384E0809357028CE00E94540381E05C
:1007B0000E9454038BE39FE10197F1F782E080935D
:1007C000580286E0DF91CF910C94540380620E941E
:1007D00054038BE496E40197F1F78091560280620E
:1007E0000E94540383E592E00197F1F7809156024D
:1007F00080620E945403D0CF41E00E94010381E057
:1008000090E008954F925F926F927F928F929F92A5
:10081000AF92BF92CF92DF92EF92FF920F931F930E
:10082000CF936B017C01742EAC019B010E94F508F3
:10083000882399F08CE092E0CF911F910F91FF9067
:10084000EF90DF90CF90BF90AF909F908F907F9070
:100850006F905F904F900C946D0246015701E894A1
:10086000B7F82FEF3FEF4FE75FE7C501B4010E94F4
:10087000F50881110DC02FEF3FEF4FE75FE7C5018E
:10088000B4010E942B0718161CF480E192E0D4CF2B
:100890002FEF3FEF4FE75FE4C701B6010E948308E7
:1008A00018161CF484E192E0C7CF2FEF3FEF4FE71B
:1008B0005FECC701B6010E942B0787FDF3CF20E054
:1008C00030E0A901C701B6010E942B0710E000E04B
:1008D00087FF0CC041E06DE287E492E00E940103D3
:1008E000F7FAF094F7F8F09401E010E0C0E060E06F
:1008F00070E080E09FE37C1641F020E030E040E2D1
:1009000051E40E943007CF5FF6CFA70196010E9405
:10091000BF064B015C010E94A2072B013C014AE08B
:100920000E947A02080F191FCC23C9F1C301B2013A
:100930000E94D1079B01AC01C501B4010E94BE0613
:100940004B015C0141E06EE287E492E00E9401030A
:100950000F5F1F4FC15018F120E030E040E251E43A
:10096000C501B4010E9488082B013C010E94A20726
:100970004B01B12CA12C4AE0C501B4010E947A02BE
:10098000080F191FC501B4010E94D1079B01AC01DA
:10099000C301B2010E94BE064B015C01DBCFC8015E
:1009A000CF911F910F91FF90EF90DF90CF90BF906C
:1009B000AF909F908F907F906F905F904F90089531
:1009C0001F920F920FB60F9211242F933F938F9384
:1009D0009F93AF93BF9380913F0290914002A0916B
:1009E0004102B091420230913E0223E0230F2D37A5
:1009F00058F50196A11DB11D20933E0280933F0240
:100A000090934002A0934102B0934202809143022E
:100A100090914402A0914502B09146020196A11D19
:100A2000B11D8093430290934402A0934502B0937A
:100A30004602BF91AF919F918F913F912F910F905F
:100A40000FBE0F901F90189526E8230F0296A11D48
:100A5000B11DD2CF789484B5826084BD84B58160A5
:100A600084BD85B5826085BD85B5816085BD809179
:100A70006E00816080936E001092810080918100F1
:100A800082608093810080918100816080938100E9
:100A9000809180008160809380008091B1008460AB
:100AA0008093B1008091B00081608093B00080910C
:100AB0009100826080939100809191008160809389
:100AC0009100809190008160809390008091A100BE
:100AD00082608093A1008091A10081608093A10039
:100AE0008091A00081608093A000809121018260AC
:100AF0008093210180912101816080932101809167
:100B0000200181608093200180917A00846080932D
:100B10007A0080917A00826080937A0080917A00D6
:100B2000816080937A0080917A00806880937A0057
:100B30001092C10082E00E945A0382E10E94550196
:100B400060E082E10E9474018BE00E94550160E048
:100B50008BE00E94740189E00E9455018AE00E94A6
:100B60005501C0E0D0E087E30E940002BC01990F6C
:100B7000880B990B0E94D3072AE038E240EA5BE336
:100B80000E94880820E030E048EC52E40E94880887
:100B90006093360270933702809338029093390243
:100BA00086E30E940002BC01990F880B990B0E94FA
:100BB000D3072AE038E240EA5BE30E94880820E09D
:100BC00030E040E250E40E94BE0622E03BE247E80B
:100BD0005DE30E94300760933A0270933B0280937A
:100BE0003C0290933D02E1E080915A028111E0E0E5
:100BF000E195F0E0E95BFD4F848980680E94540331
:100C000088E192E00E946D02609136027091370295
:100C1000809138029091390242E00E9402048FE1F3
:100C200092E00E946D02E0915A02E23008F077C033
:100C3000E150F0E0E95BFD4F848980680E94540335
:100C400085E292E00E946D0260913A0270913B024F
:100C500080913C0290913D0243E00E9402048FE2A9
:100C600092E00E946D0220E030E044E352E46091A3
:100C700036027091370280913802909139020E94B9
:100C8000830861E018160CF060E082E10E947401B4
:100C900020E030E040EA50E460913A0270913B027B
:100CA00080913C0290913D020E94830887FD39C0EB
:100CB00061E089E00E94740160E08AE00E947401B2
:100CC00061E08BE00E9474010E9417024B015C01FD
:100CD00088EEC82E83E0D82EE12CF12C0E9417025A
:100CE000681979098A099B09683E73408105910555
:100CF000A8F321E0C21AD108E108F10888EE880EB5
:100D000083E0981EA11CB11CC114D104E104F104BC
:100D100029F7209709F427CF0E94000024CFE1E0B3
:100D200088CF60E089E00E94740161E08AE00E945F
:100D3000740160E0C6CFE7E4F2E01382128284E03F
:100D400092E09183808380E284838FEF85838FE1BB
:100D5000868386E1878387E1808788E1818789E1CF
:100D600082878AE183878BE184878CE185878DE1A7
:100D7000868780E1878781E00C945A035058BB270F
:100D8000AA270E94D6060C9449080E943B0838F016
:100D90000E94420820F039F49F3F19F426F40C9485
:100DA00038080EF4E095E7FB0C943208E92F0E9416
:100DB0005A0858F3BA17620773078407950720F09B
:100DC00079F4A6F50C947C080EF4E0950B2EBA2F5E
:100DD000A02D0B01B90190010C01CA01A001112441
:100DE000FF27591B99F0593F50F4503E68F11A16ED
:100DF000F040A22F232F342F4427585FF3CF46957E
:100E000037952795A795F0405395C9F77EF41F169F
:100E1000BA0B620B730B840BBAF09150A1F0FF0F69
:100E2000BB1F661F771F881FC2F70EC0BA0F621F55
:100E3000731F841F48F4879577956795B795F79545
:100E40009E3F08F0B0CF9395880F08F09927EE0FDA
:100E50009795879508950E940E0808F481E00895FB
:100E60000E9444070C9449080E94420858F00E94CE
:100E70003B0840F029F45F3F29F00C9432085111EF
:100E80000C947D080C9438080E945A0868F3992342
:100E9000B1F3552391F3951B550BBB27AA27621776
:100EA0007307840738F09F5F5F4F220F331F441F83
:100EB000AA1FA9F335D00E2E3AF0E0E832D09150B7
:100EC0005040E695001CCAF72BD0FE2F29D0660FA4
:100ED000771F881FBB1F261737074807AB07B0E8E7
:100EE00009F0BB0B802DBF01FF2793585F4F3AF0ED
:100EF0009E3F510578F00C9432080C947D085F3FBA
:100F0000E4F3983ED4F3869577956795B795F79572
:100F10009F5FC9F7880F911D9695879597F908955A
:100F2000E1E0660F771F881FBB1F621773078407F6
:100F3000BA0720F0621B730B840BBA0BEE1F88F705
:100F4000E09508950E94620888F09F5798F0B92FA5
:100F50009927B751B0F0E1F0660F771F881F991FEE
:100F60001AF0BA95C9F714C0B13091F00E947C080C
:100F7000B1E008950C947C08672F782F8827B85F1C
:100F800039F0B93FCCF3869577956795B395D9F746
:100F90003EF490958095709561957F4F8F4F9F4F50
:100FA0000895E89409C097FB3EF49095809570955C
:100FB00061957F4F8F4F9F4F9923A9F0F92F96E9A5
:100FC000BB279395F695879577956795B795F1111A
:100FD000F8CFFAF4BB0F11F460FF1BC06F5F7F4FB7
:100FE0008F4F9F4F16C0882311F096E911C07723C9
:100FF00021F09EE8872F762F05C0662371F096E8D2
:10100000862F70E060E02AF09A95660F771F881FA0
:10101000DAF7880F9695879597F90895990F000844
:10102000550FAA0BE0E8FEEF16161706E807F907BA
:10103000C0F012161306E407F50798F0621B730B55
:10104000840B950B39F40A2661F0232B242B252BD6
:1010500021F408950A2609F4A140A6958FEF811D79
:10106000811D089597F99F6780E870E060E008951A
:101070009FEF80EC089500240A94161617061806B0
:101080000906089500240A9412161306140605068C
:101090000895092E0394000C11F4882352F0BB0F1D
:1010A00040F4BF2B11F460FF04C06F5F7F4F8F4F80
:1010B0009F4F089557FD9058440F551F59F05F3FBB
:1010C00071F04795880F97FB991F61F09F3F79F06A
:1010D00087950895121613061406551FF2CF4695EC
:1010E000F1DF08C0161617061806991FF1CF86956E
:1010F0007105610508940895E894BB276627772752
:10110000CB0197F908950E940E0808F48FEF089517
:101110000E949B080C9449080E943B0838F00E94EA
:10112000420820F0952311F00C9432080C943808F2
:1011300011240C947D080E945A0870F3959FC1F306
:10114000950F50E0551F629FF001729FBB27F00D75
:10115000B11D639FAA27F00DB11DAA1F649F6627CA
:10116000B00DA11D661F829F2227B00DA11D621F19
:10117000739FB00DA11D621F839FA00D611D221FD3
:10118000749F3327A00D611D231F849F600D211DB7
:10119000822F762F6A2F11249F5750409AF0F1F03A
:1011A00088234AF0EE0FFF1FBB1F661F771F881FA3
:1011B00091505040A9F79E3F510580F00C943208A1
:1011C0000C947D085F3FE4F3983ED4F386957795C1
:1011D0006795B795F795E7959F5FC1F7FE2B880F49
:1011E000911D9695879597F908950E940E08880B92
:1011F000990B0895A1E21A2EAA1BBB1BFD010DC07D
:10120000AA1FBB1FEE1FFF1FA217B307E407F507B6
:1012100020F0A21BB30BE40BF50B661F771F881F92
:10122000991F1A9469F760957095809590959B0128
:10123000AC01BD01CF010895EE0FFF1F881F8BBFCA
:0C1240000790F691E02D1994F894FFCF70
:10124C0000000000FC033C026A0269026E616E0041
:10125C00696E66006F76660054656D703A200020EA
:10126C004320202000436F7572616E743A20002079
:06127C00412020200000CB
:00000001FF
